{
  "contractName": "MockKittyContract",
  "abi": [
    {
      "constant": true,
      "inputs": [],
      "name": "nextKittyId",
      "outputs": [
        {
          "name": "",
          "type": "uint256"
        }
      ],
      "payable": false,
      "stateMutability": "view",
      "type": "function"
    },
    {
      "constant": true,
      "inputs": [
        {
          "name": "",
          "type": "uint256"
        }
      ],
      "name": "kitties",
      "outputs": [
        {
          "name": "genes",
          "type": "uint256"
        },
        {
          "name": "birthTime",
          "type": "uint64"
        },
        {
          "name": "matronId",
          "type": "uint32"
        },
        {
          "name": "sireId",
          "type": "uint32"
        },
        {
          "name": "generation",
          "type": "uint16"
        }
      ],
      "payable": false,
      "stateMutability": "view",
      "type": "function"
    },
    {
      "constant": false,
      "inputs": [
        {
          "name": "_genes",
          "type": "uint256"
        }
      ],
      "name": "createKitty",
      "outputs": [],
      "payable": false,
      "stateMutability": "nonpayable",
      "type": "function"
    },
    {
      "constant": true,
      "inputs": [
        {
          "name": "_tokenId",
          "type": "uint256"
        }
      ],
      "name": "getKitty",
      "outputs": [
        {
          "name": "isGestating",
          "type": "bool"
        },
        {
          "name": "isReady",
          "type": "bool"
        },
        {
          "name": "cooldownIndex",
          "type": "uint256"
        },
        {
          "name": "nextActionAt",
          "type": "uint256"
        },
        {
          "name": "siringWithId",
          "type": "uint256"
        },
        {
          "name": "birthTime",
          "type": "uint256"
        },
        {
          "name": "matronId",
          "type": "uint256"
        },
        {
          "name": "sireId",
          "type": "uint256"
        },
        {
          "name": "generation",
          "type": "uint256"
        },
        {
          "name": "genes",
          "type": "uint256"
        }
      ],
      "payable": false,
      "stateMutability": "view",
      "type": "function"
    }
  ],
  "bytecode": "0x608060405234801561001057600080fd5b50610539806100206000396000f300608060405260043610610062576000357c0100000000000000000000000000000000000000000000000000000000900463ffffffff1680636eb2628d146100675780638cc51eda14610092578063b063466414610123578063e98b7f4d14610150575b600080fd5b34801561007357600080fd5b5061007c6101d8565b6040518082815260200191505060405180910390f35b34801561009e57600080fd5b506100bd600480360381019080803590602001909291905050506101de565b604051808681526020018567ffffffffffffffff1667ffffffffffffffff1681526020018463ffffffff1663ffffffff1681526020018363ffffffff1663ffffffff1681526020018261ffff1661ffff1681526020019550505050505060405180910390f35b34801561012f57600080fd5b5061014e60048036038101908080359060200190929190505050610256565b005b34801561015c57600080fd5b5061017b60048036038101908080359060200190929190505050610371565b604051808b1515151581526020018a1515151581526020018981526020018881526020018781526020018681526020018581526020018481526020018381526020018281526020019a505050505050505050505060405180910390f35b60015481565b60006020528060005260406000206000915090508060000154908060010160009054906101000a900467ffffffffffffffff16908060010160089054906101000a900463ffffffff169080600101600c9054906101000a900463ffffffff16908060010160109054906101000a900461ffff16905085565b60a0604051908101604052808281526020014267ffffffffffffffff168152602001600063ffffffff168152602001600063ffffffff168152602001600061ffff1681525060008060015481526020019081526020016000206000820151816000015560208201518160010160006101000a81548167ffffffffffffffff021916908367ffffffffffffffff16021790555060408201518160010160086101000a81548163ffffffff021916908363ffffffff160217905550606082015181600101600c6101000a81548163ffffffff021916908363ffffffff16021790555060808201518160010160106101000a81548161ffff021916908361ffff16021790555090505060016000815480929190600101919050555050565b6000806000806000806000806000806103886104c3565b6000808d815260200190815260200160002060a06040519081016040529081600082015481526020016001820160009054906101000a900467ffffffffffffffff1667ffffffffffffffff1667ffffffffffffffff1681526020016001820160089054906101000a900463ffffffff1663ffffffff1663ffffffff16815260200160018201600c9054906101000a900463ffffffff1663ffffffff1663ffffffff1681526020016001820160109054906101000a900461ffff1661ffff1661ffff16815250509050600060016000806000856020015186604001518760600151886080015189600001518797508696508595508467ffffffffffffffff1694508363ffffffff1693508263ffffffff1692508161ffff1691509a509a509a509a509a509a509a509a509a509a50509193959799509193959799565b60a06040519081016040528060008152602001600067ffffffffffffffff168152602001600063ffffffff168152602001600063ffffffff168152602001600061ffff16815250905600a165627a7a72305820b512df957e872b2034e091e19dfcd3172eb1abc368f343ad165e7c3467d042010029",
  "source": "pragma solidity ^0.4.25;\n\ncontract MockKittyContract {\n    struct Kitty {\n        uint256 genes;\n        uint64 birthTime;\n        uint32 matronId;\n        uint32 sireId;\n        uint16 generation;\n    }\n\n    mapping(uint256 => Kitty) public kitties;\n    uint256 public nextKittyId;\n\n    function createKitty(uint256 _genes) public {\n        kitties[nextKittyId] = Kitty({\n            genes: _genes,\n            birthTime: uint64(block.timestamp),\n            matronId: 0,\n            sireId: 0,\n            generation: 0\n        });\n\n        nextKittyId++;\n    }\n\n    // Function to retrieve details of a kitty\n    function getKitty(uint256 _tokenId)\n        external\n        view\n        returns (\n            bool isGestating,\n            bool isReady,\n            uint256 cooldownIndex,\n            uint256 nextActionAt,\n            uint256 siringWithId,\n            uint256 birthTime,\n            uint256 matronId,\n            uint256 sireId,\n            uint256 generation,\n            uint256 genes\n        )\n    {\n        Kitty memory kitty = kitties[_tokenId];\n        return (\n            false, \n            true, \n            0,    \n            0,    \n            0, \n            kitty.birthTime,\n            kitty.matronId,\n            kitty.sireId,\n            kitty.generation,\n            kitty.genes\n        );\n    }\n}\n",
  "sourcePath": "/Users/csuftitan/Desktop/Cryptozombie demo package/contracts/MockKittyContract.sol",
  "compiler": {
    "name": "solc",
    "version": "0.4.25+commit.59dbf8f1.Emscripten.clang"
  },
  "schemaVersion": "3.4.4",
  "updatedAt": "2024-10-20T20:25:41.026Z",
  "devdoc": {
    "methods": {}
  },
  "userdoc": {
    "methods": {}
  }
}