{
  "contractName": "ZombieAttack",
  "abi": [
    {
      "constant": false,
      "inputs": [
        {
          "name": "_zombieId",
          "type": "uint256"
        }
      ],
      "name": "levelUp",
      "outputs": [],
      "payable": true,
      "stateMutability": "payable",
      "type": "function"
    },
    {
      "constant": false,
      "inputs": [
        {
          "name": "_zombieId",
          "type": "uint256"
        },
        {
          "name": "_kittyId",
          "type": "uint256"
        }
      ],
      "name": "feedOnKitty",
      "outputs": [],
      "payable": false,
      "stateMutability": "nonpayable",
      "type": "function"
    },
    {
      "constant": false,
      "inputs": [
        {
          "name": "zombieIds",
          "type": "uint256[]"
        }
      ],
      "name": "bulkDeleteZombies",
      "outputs": [],
      "payable": false,
      "stateMutability": "nonpayable",
      "type": "function"
    },
    {
      "constant": true,
      "inputs": [
        {
          "name": "",
          "type": "uint256"
        }
      ],
      "name": "zombies",
      "outputs": [
        {
          "name": "name",
          "type": "string"
        },
        {
          "name": "dna",
          "type": "uint256"
        },
        {
          "name": "level",
          "type": "uint32"
        },
        {
          "name": "readyTime",
          "type": "uint32"
        },
        {
          "name": "winCount",
          "type": "uint16"
        },
        {
          "name": "lossCount",
          "type": "uint16"
        }
      ],
      "payable": false,
      "stateMutability": "view",
      "type": "function"
    },
    {
      "constant": false,
      "inputs": [],
      "name": "withdraw",
      "outputs": [],
      "payable": false,
      "stateMutability": "nonpayable",
      "type": "function"
    },
    {
      "constant": true,
      "inputs": [
        {
          "name": "_owner",
          "type": "address"
        }
      ],
      "name": "getZombiesByOwner",
      "outputs": [
        {
          "name": "",
          "type": "uint256[]"
        }
      ],
      "payable": false,
      "stateMutability": "view",
      "type": "function"
    },
    {
      "constant": true,
      "inputs": [
        {
          "name": "",
          "type": "uint256"
        }
      ],
      "name": "zombieToOwner",
      "outputs": [
        {
          "name": "",
          "type": "address"
        }
      ],
      "payable": false,
      "stateMutability": "view",
      "type": "function"
    },
    {
      "constant": false,
      "inputs": [
        {
          "name": "_address",
          "type": "address"
        }
      ],
      "name": "setKittyContractAddress",
      "outputs": [],
      "payable": false,
      "stateMutability": "nonpayable",
      "type": "function"
    },
    {
      "constant": false,
      "inputs": [
        {
          "name": "_zombieId",
          "type": "uint256"
        },
        {
          "name": "_newDna",
          "type": "uint256"
        }
      ],
      "name": "changeDna",
      "outputs": [],
      "payable": false,
      "stateMutability": "nonpayable",
      "type": "function"
    },
    {
      "constant": false,
      "inputs": [
        {
          "name": "_names",
          "type": "bytes32[]"
        },
        {
          "name": "_dnas",
          "type": "uint256[]"
        }
      ],
      "name": "createZombiesInBulk",
      "outputs": [],
      "payable": false,
      "stateMutability": "nonpayable",
      "type": "function"
    },
    {
      "constant": false,
      "inputs": [],
      "name": "renounceOwnership",
      "outputs": [],
      "payable": false,
      "stateMutability": "nonpayable",
      "type": "function"
    },
    {
      "constant": false,
      "inputs": [
        {
          "name": "_name",
          "type": "string"
        }
      ],
      "name": "createRandomZombie",
      "outputs": [],
      "payable": false,
      "stateMutability": "nonpayable",
      "type": "function"
    },
    {
      "constant": true,
      "inputs": [],
      "name": "owner",
      "outputs": [
        {
          "name": "",
          "type": "address"
        }
      ],
      "payable": false,
      "stateMutability": "view",
      "type": "function"
    },
    {
      "constant": true,
      "inputs": [],
      "name": "isOwner",
      "outputs": [
        {
          "name": "",
          "type": "bool"
        }
      ],
      "payable": false,
      "stateMutability": "view",
      "type": "function"
    },
    {
      "constant": false,
      "inputs": [
        {
          "name": "_zombieId",
          "type": "uint256"
        },
        {
          "name": "_newName",
          "type": "string"
        }
      ],
      "name": "changeName",
      "outputs": [],
      "payable": false,
      "stateMutability": "nonpayable",
      "type": "function"
    },
    {
      "constant": false,
      "inputs": [
        {
          "name": "_fee",
          "type": "uint256"
        }
      ],
      "name": "setLevelUpFee",
      "outputs": [],
      "payable": false,
      "stateMutability": "nonpayable",
      "type": "function"
    },
    {
      "constant": false,
      "inputs": [
        {
          "name": "newOwner",
          "type": "address"
        }
      ],
      "name": "transferOwnership",
      "outputs": [],
      "payable": false,
      "stateMutability": "nonpayable",
      "type": "function"
    },
    {
      "anonymous": false,
      "inputs": [
        {
          "indexed": false,
          "name": "zombieId",
          "type": "uint256"
        },
        {
          "indexed": false,
          "name": "name",
          "type": "string"
        },
        {
          "indexed": false,
          "name": "dna",
          "type": "uint256"
        }
      ],
      "name": "NewZombie",
      "type": "event"
    },
    {
      "anonymous": false,
      "inputs": [
        {
          "indexed": true,
          "name": "previousOwner",
          "type": "address"
        },
        {
          "indexed": true,
          "name": "newOwner",
          "type": "address"
        }
      ],
      "name": "OwnershipTransferred",
      "type": "event"
    },
    {
      "constant": false,
      "inputs": [
        {
          "name": "_zombieId",
          "type": "uint256"
        },
        {
          "name": "_targetId",
          "type": "uint256"
        }
      ],
      "name": "attack",
      "outputs": [],
      "payable": false,
      "stateMutability": "nonpayable",
      "type": "function"
    }
  ],
  "bytecode": "0x60806040526010600155600154600a0a60025561038460035566038d7ea4c6800060085560006009556046600a55336000806101000a81548173ffffffffffffffffffffffffffffffffffffffff021916908373ffffffffffffffffffffffffffffffffffffffff1602179055506000809054906101000a900473ffffffffffffffffffffffffffffffffffffffff1673ffffffffffffffffffffffffffffffffffffffff16600073ffffffffffffffffffffffffffffffffffffffff167f8be0079c531659141344cd1fd0a4f28419497f9722a3daafe3b4186f6b6457e060405160405180910390a36122f3806100f86000396000f3006080604052600436106100fc576000357c0100000000000000000000000000000000000000000000000000000000900463ffffffff1680630ce90ec21461010157806317a7f4cc146101215780631dc42ae9146101585780632052465e146101be5780633ccfd60b146102af5780634412e104146102c6578063528b7b8f1461035e5780635f4623f1146103cb5780635faf28801461040e5780636eff7ee314610445578063715018a6146104ee5780637bff0a01146105055780638da5cb5b1461056e5780638f32d59b146105c5578063c39cbef1146105f4578063ccf670f814610639578063e1fa763814610666578063f2fde38b1461069d575b600080fd5b61011f600480360381019080803590602001909291905050506106e0565b005b34801561012d57600080fd5b50610156600480360381019080803590602001909291908035906020019092919050505061077b565b005b34801561016457600080fd5b506101bc60048036038101908080359060200190820180359060200190808060200260200160405190810160405280939291908181526020018383602002808284378201915050505050509192919290505050610924565b005b3480156101ca57600080fd5b506101e960048036038101908080359060200190929190505050610a40565b60405180806020018781526020018663ffffffff1663ffffffff1681526020018563ffffffff1663ffffffff1681526020018461ffff1661ffff1681526020018361ffff1661ffff168152602001828103825288818151815260200191508051906020019080838360005b8381101561026f578082015181840152602081019050610254565b50505050905090810190601f16801561029c5780820380516001836020036101000a031916815260200191505b5097505050505050505060405180910390f35b3480156102bb57600080fd5b506102c4610b5f565b005b3480156102d257600080fd5b50610307600480360381019080803573ffffffffffffffffffffffffffffffffffffffff169060200190929190505050610bdf565b6040518080602001828103825283818151815260200191508051906020019060200280838360005b8381101561034a57808201518184015260208101905061032f565b505050509050019250505060405180910390f35b34801561036a57600080fd5b5061038960048036038101908080359060200190929190505050610d11565b604051808273ffffffffffffffffffffffffffffffffffffffff1673ffffffffffffffffffffffffffffffffffffffff16815260200191505060405180910390f35b3480156103d757600080fd5b5061040c600480360381019080803573ffffffffffffffffffffffffffffffffffffffff169060200190929190505050610d44565b005b34801561041a57600080fd5b506104436004803603810190808035906020019092919080359060200190929190505050610d9b565b005b34801561045157600080fd5b506104ec6004803603810190808035906020019082018035906020019080806020026020016040519081016040528093929190818152602001838360200280828437820191505050505050919291929080359060200190820180359060200190808060200260200160405190810160405280939291908181526020018383602002808284378201915050505050509192919290505050610e7d565b005b3480156104fa57600080fd5b50610503610f7e565b005b34801561051157600080fd5b5061056c600480360381019080803590602001908201803590602001908080601f0160208091040260200160405190810160405280939291908181526020018383808284378201915050505050509192919290505050611050565b005b34801561057a57600080fd5b506105836110c9565b604051808273ffffffffffffffffffffffffffffffffffffffff1673ffffffffffffffffffffffffffffffffffffffff16815260200191505060405180910390f35b3480156105d157600080fd5b506105da6110f2565b604051808215151515815260200191505060405180910390f35b34801561060057600080fd5b5061063760048036038101908080359060200190929190803590602001908201803590602001919091929391929390505050611149565b005b34801561064557600080fd5b5061066460048036038101908080359060200190929190505050611237565b005b34801561067257600080fd5b5061069b6004803603810190808035906020019092919080359060200190929190505050611254565b005b3480156106a957600080fd5b506106de600480360381019080803573ffffffffffffffffffffffffffffffffffffffff1690602001909291905050506114e7565b005b600854341415156106f057600080fd5b61073a600160048381548110151561070457fe5b906000526020600020906003020160020160009054906101000a900463ffffffff1663ffffffff1661150690919063ffffffff16565b60048281548110151561074957fe5b906000526020600020906003020160020160006101000a81548163ffffffff021916908363ffffffff16021790555050565b6000600760009054906101000a900473ffffffffffffffffffffffffffffffffffffffff1673ffffffffffffffffffffffffffffffffffffffff1663e98b7f4d836040518263ffffffff167c01000000000000000000000000000000000000000000000000000000000281526004018082815260200191505061014060405180830381600087803b15801561080f57600080fd5b505af1158015610823573d6000803e3d6000fd5b505050506040513d61014081101561083a57600080fd5b81019080805190602001909291908051906020019092919080519060200190929190805190602001909291908051906020019092919080519060200190929190805190602001909291908051906020019092919080519060200190929190805190602001909291905050509091929394959697985090919293949596975090919293949596509091929394955090919293945090919293509091925090915090508091505061091f83826040805190810160405280600581526020017f6b69747479000000000000000000000000000000000000000000000000000000815250611530565b505050565b600080600091505b8251821015610a3b57828281518110151561094357fe5b9060200190602002015190503373ffffffffffffffffffffffffffffffffffffffff166005600083815260200190815260200160002060009054906101000a900473ffffffffffffffffffffffffffffffffffffffff1673ffffffffffffffffffffffffffffffffffffffff16141515610a25576040517f08c379a000000000000000000000000000000000000000000000000000000000815260040180806020018281038252601b8152602001807f596f7520646f206e6f74206f776e2074686973207a6f6d6269652e000000000081525060200191505060405180910390fd5b610a2e816117dd565b818060010192505061092c565b505050565b600481815481101515610a4f57fe5b9060005260206000209060030201600091509050806000018054600181600116156101000203166002900480601f016020809104026020016040519081016040528092919081815260200182805460018160011615610100020316600290048015610afb5780601f10610ad057610100808354040283529160200191610afb565b820191906000526020600020905b815481529060010190602001808311610ade57829003601f168201915b5050505050908060010154908060020160009054906101000a900463ffffffff16908060020160049054906101000a900463ffffffff16908060020160089054906101000a900461ffff169080600201600a9054906101000a900461ffff16905086565b6000610b696110f2565b1515610b7457600080fd5b610b7c6110c9565b90508073ffffffffffffffffffffffffffffffffffffffff166108fc3073ffffffffffffffffffffffffffffffffffffffff16319081150290604051600060405180830381858888f19350505050158015610bdb573d6000803e3d6000fd5b5050565b606080600080600660008673ffffffffffffffffffffffffffffffffffffffff1673ffffffffffffffffffffffffffffffffffffffff16815260200190815260200160002054604051908082528060200260200182016040528015610c535781602001602082028038833980820191505090505b50925060009150600090505b600480549050811015610d06578473ffffffffffffffffffffffffffffffffffffffff166005600083815260200190815260200160002060009054906101000a900473ffffffffffffffffffffffffffffffffffffffff1673ffffffffffffffffffffffffffffffffffffffff161415610cf957808383815181101515610ce257fe5b906020019060200201818152505081806001019250505b8080600101915050610c5f565b829350505050919050565b60056020528060005260406000206000915054906101000a900473ffffffffffffffffffffffffffffffffffffffff1681565b610d4c6110f2565b1515610d5757600080fd5b80600760006101000a81548173ffffffffffffffffffffffffffffffffffffffff021916908373ffffffffffffffffffffffffffffffffffffffff16021790555050565b60148281600482815481101515610dae57fe5b906000526020600020906003020160020160009054906101000a900463ffffffff1663ffffffff1610151515610de357600080fd5b836005600082815260200190815260200160002060009054906101000a900473ffffffffffffffffffffffffffffffffffffffff1673ffffffffffffffffffffffffffffffffffffffff163373ffffffffffffffffffffffffffffffffffffffff16141515610e5157600080fd5b83600486815481101515610e6157fe5b9060005260206000209060030201600101819055505050505050565b600081518351141515610f1e576040517f08c379a000000000000000000000000000000000000000000000000000000000815260040180806020018281038252602c8152602001807f4e616d657320616e6420444e4120617272617973206d757374206265206f662081526020017f657175616c206c656e677468000000000000000000000000000000000000000081525060400191505060405180910390fd5b600090505b8251811015610f7957610f6c610f4f8483815181101515610f4057fe5b90602001906020020151611938565b8383815181101515610f5d57fe5b90602001906020020151611b3a565b8080600101915050610f23565b505050565b610f866110f2565b1515610f9157600080fd5b600073ffffffffffffffffffffffffffffffffffffffff166000809054906101000a900473ffffffffffffffffffffffffffffffffffffffff1673ffffffffffffffffffffffffffffffffffffffff167f8be0079c531659141344cd1fd0a4f28419497f9722a3daafe3b4186f6b6457e060405160405180910390a360008060006101000a81548173ffffffffffffffffffffffffffffffffffffffff021916908373ffffffffffffffffffffffffffffffffffffffff160217905550565b600080600660003373ffffffffffffffffffffffffffffffffffffffff1673ffffffffffffffffffffffffffffffffffffffff1681526020019081526020016000205414151561109f57600080fd5b6110a882611e09565b90506064818115156110b657fe5b06810390506110c58282611b3a565b5050565b60008060009054906101000a900473ffffffffffffffffffffffffffffffffffffffff16905090565b60008060009054906101000a900473ffffffffffffffffffffffffffffffffffffffff1673ffffffffffffffffffffffffffffffffffffffff163373ffffffffffffffffffffffffffffffffffffffff1614905090565b6002838160048281548110151561115c57fe5b906000526020600020906003020160020160009054906101000a900463ffffffff1663ffffffff161015151561119157600080fd5b846005600082815260200190815260200160002060009054906101000a900473ffffffffffffffffffffffffffffffffffffffff1673ffffffffffffffffffffffffffffffffffffffff163373ffffffffffffffffffffffffffffffffffffffff161415156111ff57600080fd5b848460048881548110151561121057fe5b9060005260206000209060030201600001919061122e9291906121a2565b50505050505050565b61123f6110f2565b151561124a57600080fd5b8060088190555050565b6000806000846005600082815260200190815260200160002060009054906101000a900473ffffffffffffffffffffffffffffffffffffffff1673ffffffffffffffffffffffffffffffffffffffff163373ffffffffffffffffffffffffffffffffffffffff161415156112c757600080fd5b6004868154811015156112d657fe5b906000526020600020906003020193506004858154811015156112f557fe5b9060005260206000209060030201925061130f6064611ef7565b9150600a54821115156114455761134660018560020160089054906101000a900461ffff1661ffff16611ffa90919063ffffffff16565b8460020160086101000a81548161ffff021916908361ffff16021790555061139260018560020160009054906101000a900463ffffffff1663ffffffff1661150690919063ffffffff16565b8460020160006101000a81548163ffffffff021916908363ffffffff1602179055506113de600184600201600a9054906101000a900461ffff1661ffff16611ffa90919063ffffffff16565b83600201600a6101000a81548161ffff021916908361ffff1602179055506114408684600101546040805190810160405280600681526020017f7a6f6d6269650000000000000000000000000000000000000000000000000000815250611530565b6114df565b61146f600185600201600a9054906101000a900461ffff1661ffff16611ffa90919063ffffffff16565b84600201600a6101000a81548161ffff021916908361ffff1602179055506114b760018460020160089054906101000a900461ffff1661ffff16611ffa90919063ffffffff16565b8360020160086101000a81548161ffff021916908361ffff1602179055506114de84612020565b5b505050505050565b6114ef6110f2565b15156114fa57600080fd5b6115038161204a565b50565b60008082840190508363ffffffff168163ffffffff161015151561152657fe5b8091505092915050565b600080846005600082815260200190815260200160002060009054906101000a900473ffffffffffffffffffffffffffffffffffffffff1673ffffffffffffffffffffffffffffffffffffffff163373ffffffffffffffffffffffffffffffffffffffff161415156115a157600080fd5b6004868154811015156115b057fe5b906000526020600020906003020192506115c983612144565b15156115d457600080fd5b600254858115156115e157fe5b0694506002858460010154018115156115f657fe5b04915060405160200180807f6b6974747900000000000000000000000000000000000000000000000000000081525060050190506040516020818303038152906040526040518082805190602001908083835b60208310151561166e5780518252602082019150602081019050602083039250611649565b6001836020036101000a038019825116818451168082178552505050505050905001915050604051809103902060001916846040516020018082805190602001908083835b6020831015156116d857805182526020820191506020810190506020830392506116b3565b6001836020036101000a0380198251168184511680821785525050505050509050019150506040516020818303038152906040526040518082805190602001908083835b602083101515611741578051825260208201915060208101905060208303925061171c565b6001836020036101000a038019825116818451168082178552505050505050905001915050604051809103902060001916141561178d57606360648381151561178657fe5b0683030191505b6117cc6040805190810160405280600681526020017f4e6f4e616d65000000000000000000000000000000000000000000000000000081525083611b3a565b6117d583612020565b505050505050565b6118636001600660006005600086815260200190815260200160002060009054906101000a900473ffffffffffffffffffffffffffffffffffffffff1673ffffffffffffffffffffffffffffffffffffffff1673ffffffffffffffffffffffffffffffffffffffff1681526020019081526020016000205461216b90919063ffffffff16565b600660006005600085815260200190815260200160002060009054906101000a900473ffffffffffffffffffffffffffffffffffffffff1673ffffffffffffffffffffffffffffffffffffffff1673ffffffffffffffffffffffffffffffffffffffff168152602001908152602001600020819055506005600082815260200190815260200160002060006101000a81549073ffffffffffffffffffffffffffffffffffffffff0219169055600060048281548110151561192057fe5b90600052602060002090600302016001018190555050565b606060006060600091505b60208260ff161080156119ce575060007f010000000000000000000000000000000000000000000000000000000000000002848360ff1660208110151561198657fe5b1a7f0100000000000000000000000000000000000000000000000000000000000000027effffffffffffffffffffffffffffffffffffffffffffffffffffffffffffff191614155b156119e0578180600101925050611943565b8160ff166040519080825280601f01601f191660200182016040528015611a165781602001602082028038833980820191505090505b509050600091505b60208260ff16108015611aa9575060007f010000000000000000000000000000000000000000000000000000000000000002848360ff16602081101515611a6157fe5b1a7f0100000000000000000000000000000000000000000000000000000000000000027effffffffffffffffffffffffffffffffffffffffffffffffffffffffffffff191614155b15611b3057838260ff16602081101515611abf57fe5b1a7f010000000000000000000000000000000000000000000000000000000000000002818360ff16815181101515611af357fe5b9060200101907effffffffffffffffffffffffffffffffffffffffffffffffffffffffffffff1916908160001a9053508180600101925050611a1e565b8092505050919050565b60006001600460c060405190810160405280868152602001858152602001600163ffffffff1681526020014263ffffffff168152602001600061ffff168152602001600061ffff16815250908060018154018082558091505090600182039060005260206000209060030201600090919290919091506000820151816000019080519060200190611bcc929190612222565b506020820151816001015560408201518160020160006101000a81548163ffffffff021916908363ffffffff16021790555060608201518160020160046101000a81548163ffffffff021916908363ffffffff16021790555060808201518160020160086101000a81548161ffff021916908361ffff16021790555060a082015181600201600a6101000a81548161ffff021916908361ffff1602179055505050039050336005600083815260200190815260200160002060006101000a81548173ffffffffffffffffffffffffffffffffffffffff021916908373ffffffffffffffffffffffffffffffffffffffff160217905550611d156001600660003373ffffffffffffffffffffffffffffffffffffffff1673ffffffffffffffffffffffffffffffffffffffff1681526020019081526020016000205461218490919063ffffffff16565b600660003373ffffffffffffffffffffffffffffffffffffffff1673ffffffffffffffffffffffffffffffffffffffff168152602001908152602001600020819055507f88f026aacbbecc90c18411df4b1185fd8d9be2470f1962f192bf84a27d0704b78184846040518084815260200180602001838152602001828103825284818151815260200191508051906020019080838360005b83811015611dc8578082015181840152602081019050611dad565b50505050905090810190601f168015611df55780820380516001836020036101000a031916815260200191505b5094505050505060405180910390a1505050565b600080826040516020018082805190602001908083835b602083101515611e455780518252602082019150602081019050602083039250611e20565b6001836020036101000a0380198251168184511680821785525050505050509050019150506040516020818303038152906040526040518082805190602001908083835b602083101515611eae5780518252602082019150602081019050602083039250611e89565b6001836020036101000a038019825116818451168082178552505050505050905001915050604051809103902060019004905060025481811515611eee57fe5b06915050919050565b6000611f0f600160095461218490919063ffffffff16565b600981905550814233600954604051602001808481526020018373ffffffffffffffffffffffffffffffffffffffff1673ffffffffffffffffffffffffffffffffffffffff166c0100000000000000000000000002815260140182815260200193505050506040516020818303038152906040526040518082805190602001908083835b602083101515611fb85780518252602082019150602081019050602083039250611f93565b6001836020036101000a038019825116818451168082178552505050505050905001915050604051809103902060019004811515611ff257fe5b069050919050565b60008082840190508361ffff168161ffff161015151561201657fe5b8091505092915050565b60035442018160020160046101000a81548163ffffffff021916908363ffffffff16021790555050565b600073ffffffffffffffffffffffffffffffffffffffff168173ffffffffffffffffffffffffffffffffffffffff161415151561208657600080fd5b8073ffffffffffffffffffffffffffffffffffffffff166000809054906101000a900473ffffffffffffffffffffffffffffffffffffffff1673ffffffffffffffffffffffffffffffffffffffff167f8be0079c531659141344cd1fd0a4f28419497f9722a3daafe3b4186f6b6457e060405160405180910390a3806000806101000a81548173ffffffffffffffffffffffffffffffffffffffff021916908373ffffffffffffffffffffffffffffffffffffffff16021790555050565b6000428260020160049054906101000a900463ffffffff1663ffffffff1611159050919050565b600082821115151561217957fe5b818303905092915050565b600080828401905083811015151561219857fe5b8091505092915050565b828054600181600116156101000203166002900490600052602060002090601f016020900481019282601f106121e357803560ff1916838001178555612211565b82800160010185558215612211579182015b828111156122105782358255916020019190600101906121f5565b5b50905061221e91906122a2565b5090565b828054600181600116156101000203166002900490600052602060002090601f016020900481019282601f1061226357805160ff1916838001178555612291565b82800160010185558215612291579182015b82811115612290578251825591602001919060010190612275565b5b50905061229e91906122a2565b5090565b6122c491905b808211156122c05760008160009055506001016122a8565b5090565b905600a165627a7a723058206b829abe4a7c3037cb6a15630105011ea5d6ad10fe33513cc7868afdc54830db0029",
  "source": "pragma solidity ^0.4.25;\n\nimport \"./zombiehelper.sol\";\n\ncontract ZombieAttack is ZombieHelper {\n  uint randNonce = 0;\n  uint attackVictoryProbability = 70;\n\n  function randMod(uint _modulus) internal returns(uint) {\n    randNonce = randNonce.add(1);\n    return uint(keccak256(abi.encodePacked(now, msg.sender, randNonce))) % _modulus;\n  }\n\n  function attack(uint _zombieId, uint _targetId) external onlyOwnerOf(_zombieId) {\n    Zombie storage myZombie = zombies[_zombieId];\n    Zombie storage enemyZombie = zombies[_targetId];\n    uint rand = randMod(100);\n    if (rand <= attackVictoryProbability) {\n      myZombie.winCount = myZombie.winCount.add(1);\n      myZombie.level = myZombie.level.add(1);\n      enemyZombie.lossCount = enemyZombie.lossCount.add(1);\n      feedAndMultiply(_zombieId, enemyZombie.dna, \"zombie\");\n    } else {\n      myZombie.lossCount = myZombie.lossCount.add(1);\n      enemyZombie.winCount = enemyZombie.winCount.add(1);\n      _triggerCooldown(myZombie);\n    }\n  }\n}\n",
  "sourcePath": "/Users/csuftitan/Desktop/Cryptozombie demo package/contracts/zombieattack.sol",
  "compiler": {
    "name": "solc",
    "version": "0.4.25+commit.59dbf8f1.Emscripten.clang"
  },
  "schemaVersion": "3.4.4",
  "updatedAt": "2024-10-21T03:54:03.358Z",
  "networkType": "ethereum",
  "devdoc": {
    "methods": {
      "isOwner()": {
        "return": "true if `msg.sender` is the owner of the contract."
      },
      "owner()": {
        "return": "the address of the owner."
      },
      "renounceOwnership()": {
        "details": "Allows the current owner to relinquish control of the contract."
      },
      "transferOwnership(address)": {
        "details": "Allows the current owner to transfer control of the contract to a newOwner.",
        "params": {
          "newOwner": "The address to transfer ownership to."
        }
      }
    }
  },
  "userdoc": {
    "methods": {
      "renounceOwnership()": {
        "notice": "Renouncing to ownership will leave the contract without an owner. It will not be possible to call the functions with the `onlyOwner` modifier anymore."
      }
    }
  }
}