{
  "contractName": "ZombieOwnership",
  "abi": [
    {
      "constant": false,
      "inputs": [
        {
          "name": "_zombieId",
          "type": "uint256"
        }
      ],
      "name": "levelUp",
      "outputs": [],
      "payable": true,
      "stateMutability": "payable",
      "type": "function"
    },
    {
      "constant": false,
      "inputs": [
        {
          "name": "_zombieId",
          "type": "uint256"
        },
        {
          "name": "_kittyId",
          "type": "uint256"
        }
      ],
      "name": "feedOnKitty",
      "outputs": [],
      "payable": false,
      "stateMutability": "nonpayable",
      "type": "function"
    },
    {
      "constant": false,
      "inputs": [
        {
          "name": "zombieIds",
          "type": "uint256[]"
        }
      ],
      "name": "bulkDeleteZombies",
      "outputs": [],
      "payable": false,
      "stateMutability": "nonpayable",
      "type": "function"
    },
    {
      "constant": true,
      "inputs": [
        {
          "name": "",
          "type": "uint256"
        }
      ],
      "name": "zombies",
      "outputs": [
        {
          "name": "name",
          "type": "string"
        },
        {
          "name": "dna",
          "type": "uint256"
        },
        {
          "name": "level",
          "type": "uint32"
        },
        {
          "name": "readyTime",
          "type": "uint32"
        },
        {
          "name": "winCount",
          "type": "uint16"
        },
        {
          "name": "lossCount",
          "type": "uint16"
        }
      ],
      "payable": false,
      "stateMutability": "view",
      "type": "function"
    },
    {
      "constant": false,
      "inputs": [],
      "name": "withdraw",
      "outputs": [],
      "payable": false,
      "stateMutability": "nonpayable",
      "type": "function"
    },
    {
      "constant": true,
      "inputs": [
        {
          "name": "",
          "type": "uint256"
        }
      ],
      "name": "zombiesForSale",
      "outputs": [
        {
          "name": "price",
          "type": "uint256"
        },
        {
          "name": "seller",
          "type": "address"
        }
      ],
      "payable": false,
      "stateMutability": "view",
      "type": "function"
    },
    {
      "constant": true,
      "inputs": [
        {
          "name": "_owner",
          "type": "address"
        }
      ],
      "name": "getZombiesByOwner",
      "outputs": [
        {
          "name": "",
          "type": "uint256[]"
        }
      ],
      "payable": false,
      "stateMutability": "view",
      "type": "function"
    },
    {
      "constant": true,
      "inputs": [
        {
          "name": "",
          "type": "uint256"
        }
      ],
      "name": "zombieToOwner",
      "outputs": [
        {
          "name": "",
          "type": "address"
        }
      ],
      "payable": false,
      "stateMutability": "view",
      "type": "function"
    },
    {
      "constant": false,
      "inputs": [
        {
          "name": "_address",
          "type": "address"
        }
      ],
      "name": "setKittyContractAddress",
      "outputs": [],
      "payable": false,
      "stateMutability": "nonpayable",
      "type": "function"
    },
    {
      "constant": false,
      "inputs": [
        {
          "name": "_zombieId",
          "type": "uint256"
        },
        {
          "name": "_newDna",
          "type": "uint256"
        }
      ],
      "name": "changeDna",
      "outputs": [],
      "payable": false,
      "stateMutability": "nonpayable",
      "type": "function"
    },
    {
      "constant": false,
      "inputs": [
        {
          "name": "_names",
          "type": "bytes32[]"
        },
        {
          "name": "_dnas",
          "type": "uint256[]"
        }
      ],
      "name": "createZombiesInBulk",
      "outputs": [],
      "payable": false,
      "stateMutability": "nonpayable",
      "type": "function"
    },
    {
      "constant": false,
      "inputs": [],
      "name": "renounceOwnership",
      "outputs": [],
      "payable": false,
      "stateMutability": "nonpayable",
      "type": "function"
    },
    {
      "constant": false,
      "inputs": [
        {
          "name": "_name",
          "type": "string"
        }
      ],
      "name": "createRandomZombie",
      "outputs": [],
      "payable": false,
      "stateMutability": "nonpayable",
      "type": "function"
    },
    {
      "constant": true,
      "inputs": [],
      "name": "owner",
      "outputs": [
        {
          "name": "",
          "type": "address"
        }
      ],
      "payable": false,
      "stateMutability": "view",
      "type": "function"
    },
    {
      "constant": true,
      "inputs": [],
      "name": "isOwner",
      "outputs": [
        {
          "name": "",
          "type": "bool"
        }
      ],
      "payable": false,
      "stateMutability": "view",
      "type": "function"
    },
    {
      "constant": false,
      "inputs": [
        {
          "name": "_zombieId",
          "type": "uint256"
        },
        {
          "name": "_newName",
          "type": "string"
        }
      ],
      "name": "changeName",
      "outputs": [],
      "payable": false,
      "stateMutability": "nonpayable",
      "type": "function"
    },
    {
      "constant": false,
      "inputs": [
        {
          "name": "_fee",
          "type": "uint256"
        }
      ],
      "name": "setLevelUpFee",
      "outputs": [],
      "payable": false,
      "stateMutability": "nonpayable",
      "type": "function"
    },
    {
      "constant": true,
      "inputs": [
        {
          "name": "",
          "type": "uint256"
        }
      ],
      "name": "zombieSaleList",
      "outputs": [
        {
          "name": "",
          "type": "uint256"
        }
      ],
      "payable": false,
      "stateMutability": "view",
      "type": "function"
    },
    {
      "constant": false,
      "inputs": [
        {
          "name": "_zombieId",
          "type": "uint256"
        },
        {
          "name": "_targetId",
          "type": "uint256"
        }
      ],
      "name": "attack",
      "outputs": [],
      "payable": false,
      "stateMutability": "nonpayable",
      "type": "function"
    },
    {
      "constant": false,
      "inputs": [
        {
          "name": "newOwner",
          "type": "address"
        }
      ],
      "name": "transferOwnership",
      "outputs": [],
      "payable": false,
      "stateMutability": "nonpayable",
      "type": "function"
    },
    {
      "anonymous": false,
      "inputs": [
        {
          "indexed": true,
          "name": "zombieId",
          "type": "uint256"
        },
        {
          "indexed": false,
          "name": "price",
          "type": "uint256"
        },
        {
          "indexed": true,
          "name": "seller",
          "type": "address"
        }
      ],
      "name": "ZombieListedForSale",
      "type": "event"
    },
    {
      "anonymous": false,
      "inputs": [
        {
          "indexed": true,
          "name": "zombieId",
          "type": "uint256"
        },
        {
          "indexed": true,
          "name": "seller",
          "type": "address"
        }
      ],
      "name": "ZombieSaleCancelled",
      "type": "event"
    },
    {
      "anonymous": false,
      "inputs": [
        {
          "indexed": true,
          "name": "zombieId",
          "type": "uint256"
        },
        {
          "indexed": false,
          "name": "price",
          "type": "uint256"
        },
        {
          "indexed": true,
          "name": "buyer",
          "type": "address"
        }
      ],
      "name": "ZombieSold",
      "type": "event"
    },
    {
      "anonymous": false,
      "inputs": [
        {
          "indexed": true,
          "name": "from",
          "type": "address"
        },
        {
          "indexed": true,
          "name": "to",
          "type": "address"
        },
        {
          "indexed": false,
          "name": "amount",
          "type": "uint256"
        },
        {
          "indexed": false,
          "name": "success",
          "type": "bool"
        }
      ],
      "name": "DebugTransfer",
      "type": "event"
    },
    {
      "anonymous": false,
      "inputs": [
        {
          "indexed": true,
          "name": "_from",
          "type": "address"
        },
        {
          "indexed": true,
          "name": "_to",
          "type": "address"
        },
        {
          "indexed": true,
          "name": "_tokenId",
          "type": "uint256"
        }
      ],
      "name": "Transfer",
      "type": "event"
    },
    {
      "anonymous": false,
      "inputs": [
        {
          "indexed": true,
          "name": "_owner",
          "type": "address"
        },
        {
          "indexed": true,
          "name": "_approved",
          "type": "address"
        },
        {
          "indexed": true,
          "name": "_tokenId",
          "type": "uint256"
        }
      ],
      "name": "Approval",
      "type": "event"
    },
    {
      "anonymous": false,
      "inputs": [
        {
          "indexed": false,
          "name": "zombieId",
          "type": "uint256"
        },
        {
          "indexed": false,
          "name": "name",
          "type": "string"
        },
        {
          "indexed": false,
          "name": "dna",
          "type": "uint256"
        }
      ],
      "name": "NewZombie",
      "type": "event"
    },
    {
      "anonymous": false,
      "inputs": [
        {
          "indexed": true,
          "name": "previousOwner",
          "type": "address"
        },
        {
          "indexed": true,
          "name": "newOwner",
          "type": "address"
        }
      ],
      "name": "OwnershipTransferred",
      "type": "event"
    },
    {
      "constant": false,
      "inputs": [
        {
          "name": "_zombieId",
          "type": "uint256"
        },
        {
          "name": "_price",
          "type": "uint256"
        }
      ],
      "name": "listZombieForSale",
      "outputs": [],
      "payable": false,
      "stateMutability": "nonpayable",
      "type": "function"
    },
    {
      "constant": true,
      "inputs": [],
      "name": "getZombiesOnSale",
      "outputs": [
        {
          "name": "",
          "type": "uint256[]"
        }
      ],
      "payable": false,
      "stateMutability": "view",
      "type": "function"
    },
    {
      "constant": false,
      "inputs": [
        {
          "name": "_zombieId",
          "type": "uint256"
        }
      ],
      "name": "buyZombie",
      "outputs": [],
      "payable": true,
      "stateMutability": "payable",
      "type": "function"
    },
    {
      "constant": false,
      "inputs": [
        {
          "name": "_zombieId",
          "type": "uint256"
        }
      ],
      "name": "cancelZombieSale",
      "outputs": [],
      "payable": false,
      "stateMutability": "nonpayable",
      "type": "function"
    },
    {
      "constant": true,
      "inputs": [
        {
          "name": "_owner",
          "type": "address"
        }
      ],
      "name": "balanceOf",
      "outputs": [
        {
          "name": "",
          "type": "uint256"
        }
      ],
      "payable": false,
      "stateMutability": "view",
      "type": "function"
    },
    {
      "constant": true,
      "inputs": [
        {
          "name": "_tokenId",
          "type": "uint256"
        }
      ],
      "name": "ownerOf",
      "outputs": [
        {
          "name": "",
          "type": "address"
        }
      ],
      "payable": false,
      "stateMutability": "view",
      "type": "function"
    },
    {
      "constant": false,
      "inputs": [
        {
          "name": "_from",
          "type": "address"
        },
        {
          "name": "_to",
          "type": "address"
        },
        {
          "name": "_tokenId",
          "type": "uint256"
        }
      ],
      "name": "transferFrom",
      "outputs": [],
      "payable": true,
      "stateMutability": "payable",
      "type": "function"
    },
    {
      "constant": false,
      "inputs": [
        {
          "name": "_approved",
          "type": "address"
        },
        {
          "name": "_tokenId",
          "type": "uint256"
        }
      ],
      "name": "approve",
      "outputs": [],
      "payable": true,
      "stateMutability": "payable",
      "type": "function"
    }
  ],
  "bytecode": "0x60806040526010600155600154600a0a60025561038460035566038d7ea4c6800060085560006009556046600a55336000806101000a81548173ffffffffffffffffffffffffffffffffffffffff021916908373ffffffffffffffffffffffffffffffffffffffff1602179055506000809054906101000a900473ffffffffffffffffffffffffffffffffffffffff1673ffffffffffffffffffffffffffffffffffffffff16600073ffffffffffffffffffffffffffffffffffffffff167f8be0079c531659141344cd1fd0a4f28419497f9722a3daafe3b4186f6b6457e060405160405180910390a3613556806100f86000396000f30060806040526004361061016a576000357c0100000000000000000000000000000000000000000000000000000000900463ffffffff168063095ea7b31461016f5780630ce90ec2146101af57806317a7f4cc146101cf5780631d72d579146102065780631dc42ae91461023d5780632052465e146102a357806323b872dd146103945780633ccfd60b146103f45780633de010f51461040b5780634412e1041461047f578063528b7b8f146105175780635f4623f1146105845780635faf2880146105c7578063613a39ce146105fe5780636352211e1461066a5780636a0035b7146106d75780636eff7ee31461070457806370a08231146107ad578063715018a6146108045780637bff0a011461081b5780638da5cb5b146108845780638f32d59b146108db578063b92e2d741461090a578063c39cbef11461092a578063ccf670f81461096f578063e149cb3c1461099c578063e1fa7638146109dd578063f2fde38b14610a14575b600080fd5b6101ad600480360381019080803573ffffffffffffffffffffffffffffffffffffffff16906020019092919080359060200190929190505050610a57565b005b6101cd60048036038101908080359060200190929190505050610b77565b005b3480156101db57600080fd5b506102046004803603810190808035906020019092919080359060200190929190505050610c12565b005b34801561021257600080fd5b5061023b6004803603810190808035906020019092919080359060200190929190505050610dbb565b005b34801561024957600080fd5b506102a160048036038101908080359060200190820180359060200190808060200260200160405190810160405280939291908181526020018383602002808284378201915050505050509192919290505050611040565b005b3480156102af57600080fd5b506102ce6004803603810190808035906020019092919050505061115c565b60405180806020018781526020018663ffffffff1663ffffffff1681526020018563ffffffff1663ffffffff1681526020018461ffff1661ffff1681526020018361ffff1661ffff168152602001828103825288818151815260200191508051906020019080838360005b83811015610354578082015181840152602081019050610339565b50505050905090810190601f1680156103815780820380516001836020036101000a031916815260200191505b5097505050505050505060405180910390f35b6103f2600480360381019080803573ffffffffffffffffffffffffffffffffffffffff169060200190929190803573ffffffffffffffffffffffffffffffffffffffff1690602001909291908035906020019092919050505061127b565b005b34801561040057600080fd5b50610409611361565b005b34801561041757600080fd5b50610436600480360381019080803590602001909291905050506113e1565b604051808381526020018273ffffffffffffffffffffffffffffffffffffffff1673ffffffffffffffffffffffffffffffffffffffff1681526020019250505060405180910390f35b34801561048b57600080fd5b506104c0600480360381019080803573ffffffffffffffffffffffffffffffffffffffff169060200190929190505050611425565b6040518080602001828103825283818151815260200191508051906020019060200280838360005b838110156105035780820151818401526020810190506104e8565b505050509050019250505060405180910390f35b34801561052357600080fd5b5061054260048036038101908080359060200190929190505050611557565b604051808273ffffffffffffffffffffffffffffffffffffffff1673ffffffffffffffffffffffffffffffffffffffff16815260200191505060405180910390f35b34801561059057600080fd5b506105c5600480360381019080803573ffffffffffffffffffffffffffffffffffffffff16906020019092919050505061158a565b005b3480156105d357600080fd5b506105fc60048036038101908080359060200190929190803590602001909291905050506115e1565b005b34801561060a57600080fd5b506106136116c3565b6040518080602001828103825283818151815260200191508051906020019060200280838360005b8381101561065657808201518184015260208101905061063b565b505050509050019250505060405180910390f35b34801561067657600080fd5b506106956004803603810190808035906020019092919050505061171b565b604051808273ffffffffffffffffffffffffffffffffffffffff1673ffffffffffffffffffffffffffffffffffffffff16815260200191505060405180910390f35b3480156106e357600080fd5b5061070260048036038101908080359060200190929190505050611758565b005b34801561071057600080fd5b506107ab6004803603810190808035906020019082018035906020019080806020026020016040519081016040528093929190818152602001838360200280828437820191505050505050919291929080359060200190820180359060200190808060200260200160405190810160405280939291908181526020018383602002808284378201915050505050509192919290505050611943565b005b3480156107b957600080fd5b506107ee600480360381019080803573ffffffffffffffffffffffffffffffffffffffff169060200190929190505050611a44565b6040518082815260200191505060405180910390f35b34801561081057600080fd5b50610819611a8d565b005b34801561082757600080fd5b50610882600480360381019080803590602001908201803590602001908080601f0160208091040260200160405190810160405280939291908181526020018383808284378201915050505050509192919290505050611b5f565b005b34801561089057600080fd5b50610899611bd8565b604051808273ffffffffffffffffffffffffffffffffffffffff1673ffffffffffffffffffffffffffffffffffffffff16815260200191505060405180910390f35b3480156108e757600080fd5b506108f0611c01565b604051808215151515815260200191505060405180910390f35b61092860048036038101908080359060200190929190505050611c58565b005b34801561093657600080fd5b5061096d600480360381019080803590602001909291908035906020019082018035906020019190919293919293905050506120b0565b005b34801561097b57600080fd5b5061099a6004803603810190808035906020019092919050505061219e565b005b3480156109a857600080fd5b506109c7600480360381019080803590602001909291905050506121bb565b6040518082815260200191505060405180910390f35b3480156109e957600080fd5b50610a1260048036038101908080359060200190929190803590602001909291905050506121de565b005b348015610a2057600080fd5b50610a55600480360381019080803573ffffffffffffffffffffffffffffffffffffffff169060200190929190505050612471565b005b806005600082815260200190815260200160002060009054906101000a900473ffffffffffffffffffffffffffffffffffffffff1673ffffffffffffffffffffffffffffffffffffffff163373ffffffffffffffffffffffffffffffffffffffff16141515610ac557600080fd5b82600b600084815260200190815260200160002060006101000a81548173ffffffffffffffffffffffffffffffffffffffff021916908373ffffffffffffffffffffffffffffffffffffffff160217905550818373ffffffffffffffffffffffffffffffffffffffff163373ffffffffffffffffffffffffffffffffffffffff167f8c5be1e5ebec7d5bd14f71427d1e84f3dd0314c0f7b2291e5b200ac8c7c3b92560405160405180910390a4505050565b60085434141515610b8757600080fd5b610bd16001600483815481101515610b9b57fe5b906000526020600020906003020160020160009054906101000a900463ffffffff1663ffffffff1661249090919063ffffffff16565b600482815481101515610be057fe5b906000526020600020906003020160020160006101000a81548163ffffffff021916908363ffffffff16021790555050565b6000600760009054906101000a900473ffffffffffffffffffffffffffffffffffffffff1673ffffffffffffffffffffffffffffffffffffffff1663e98b7f4d836040518263ffffffff167c01000000000000000000000000000000000000000000000000000000000281526004018082815260200191505061014060405180830381600087803b158015610ca657600080fd5b505af1158015610cba573d6000803e3d6000fd5b505050506040513d610140811015610cd157600080fd5b810190808051906020019092919080519060200190929190805190602001909291908051906020019092919080519060200190929190805190602001909291908051906020019092919080519060200190929190805190602001909291908051906020019092919050505090919293949596979850909192939495969750909192939495965090919293949550909192939450909192935090919250909150905080915050610db683826040805190810160405280600581526020017f6b697474790000000000000000000000000000000000000000000000000000008152506124ba565b505050565b600081111515610e33576040517f08c379a00000000000000000000000000000000000000000000000000000000081526004018080602001828103825260208152602001807f5072696365206d7573742062652067726561746572207468616e207a65726f2e81525060200191505060405180910390fd5b6005600083815260200190815260200160002060009054906101000a900473ffffffffffffffffffffffffffffffffffffffff1673ffffffffffffffffffffffffffffffffffffffff163373ffffffffffffffffffffffffffffffffffffffff16141515610f2f576040517f08c379a000000000000000000000000000000000000000000000000000000000815260040180806020018281038252602c8152602001807f4f6e6c7920746865206f776e65722063616e206c69737420746865207a6f6d6281526020017f696520666f722073616c652e000000000000000000000000000000000000000081525060400191505060405180910390fd5b60408051908101604052808281526020013373ffffffffffffffffffffffffffffffffffffffff16815250600c60008481526020019081526020016000206000820151816000015560208201518160010160006101000a81548173ffffffffffffffffffffffffffffffffffffffff021916908373ffffffffffffffffffffffffffffffffffffffff160217905550905050600d8290806001815401808255809150509060018203906000526020600020016000909192909190915055503373ffffffffffffffffffffffffffffffffffffffff16827fbb36b57e71a7ef35b2402dfd5da757eadbce05ce0b13b8ee384f39408ebd35fd836040518082815260200191505060405180910390a35050565b600080600091505b825182101561115757828281518110151561105f57fe5b9060200190602002015190503373ffffffffffffffffffffffffffffffffffffffff166005600083815260200190815260200160002060009054906101000a900473ffffffffffffffffffffffffffffffffffffffff1673ffffffffffffffffffffffffffffffffffffffff16141515611141576040517f08c379a000000000000000000000000000000000000000000000000000000000815260040180806020018281038252601b8152602001807f596f7520646f206e6f74206f776e2074686973207a6f6d6269652e000000000081525060200191505060405180910390fd5b61114a81612767565b8180600101925050611048565b505050565b60048181548110151561116b57fe5b9060005260206000209060030201600091509050806000018054600181600116156101000203166002900480601f0160208091040260200160405190810160405280929190818152602001828054600181600116156101000203166002900480156112175780601f106111ec57610100808354040283529160200191611217565b820191906000526020600020905b8154815290600101906020018083116111fa57829003601f168201915b5050505050908060010154908060020160009054906101000a900463ffffffff16908060020160049054906101000a900463ffffffff16908060020160089054906101000a900461ffff169080600201600a9054906101000a900461ffff16905086565b3373ffffffffffffffffffffffffffffffffffffffff166005600083815260200190815260200160002060009054906101000a900473ffffffffffffffffffffffffffffffffffffffff1673ffffffffffffffffffffffffffffffffffffffff16148061134657503373ffffffffffffffffffffffffffffffffffffffff16600b600083815260200190815260200160002060009054906101000a900473ffffffffffffffffffffffffffffffffffffffff1673ffffffffffffffffffffffffffffffffffffffff16145b151561135157600080fd5b61135c8383836128c2565b505050565b600061136b611c01565b151561137657600080fd5b61137e611bd8565b90508073ffffffffffffffffffffffffffffffffffffffff166108fc3073ffffffffffffffffffffffffffffffffffffffff16319081150290604051600060405180830381858888f193505050501580156113dd573d6000803e3d6000fd5b5050565b600c6020528060005260406000206000915090508060000154908060010160009054906101000a900473ffffffffffffffffffffffffffffffffffffffff16905082565b606080600080600660008673ffffffffffffffffffffffffffffffffffffffff1673ffffffffffffffffffffffffffffffffffffffff168152602001908152602001600020546040519080825280602002602001820160405280156114995781602001602082028038833980820191505090505b50925060009150600090505b60048054905081101561154c578473ffffffffffffffffffffffffffffffffffffffff166005600083815260200190815260200160002060009054906101000a900473ffffffffffffffffffffffffffffffffffffffff1673ffffffffffffffffffffffffffffffffffffffff16141561153f5780838381518110151561152857fe5b906020019060200201818152505081806001019250505b80806001019150506114a5565b829350505050919050565b60056020528060005260406000206000915054906101000a900473ffffffffffffffffffffffffffffffffffffffff1681565b611592611c01565b151561159d57600080fd5b80600760006101000a81548173ffffffffffffffffffffffffffffffffffffffff021916908373ffffffffffffffffffffffffffffffffffffffff16021790555050565b601482816004828154811015156115f457fe5b906000526020600020906003020160020160009054906101000a900463ffffffff1663ffffffff161015151561162957600080fd5b836005600082815260200190815260200160002060009054906101000a900473ffffffffffffffffffffffffffffffffffffffff1673ffffffffffffffffffffffffffffffffffffffff163373ffffffffffffffffffffffffffffffffffffffff1614151561169757600080fd5b836004868154811015156116a757fe5b9060005260206000209060030201600101819055505050505050565b6060600d80548060200260200160405190810160405280929190818152602001828054801561171157602002820191906000526020600020905b8154815260200190600101908083116116fd575b5050505050905090565b60006005600083815260200190815260200160002060009054906101000a900473ffffffffffffffffffffffffffffffffffffffff169050919050565b6117606133a9565b600c6000838152602001908152602001600020604080519081016040529081600082015481526020016001820160009054906101000a900473ffffffffffffffffffffffffffffffffffffffff1673ffffffffffffffffffffffffffffffffffffffff1673ffffffffffffffffffffffffffffffffffffffff168152505090503373ffffffffffffffffffffffffffffffffffffffff16816020015173ffffffffffffffffffffffffffffffffffffffff161415156118ad576040517f08c379a00000000000000000000000000000000000000000000000000000000081526004018080602001828103825260248152602001807f4f6e6c79207468652073656c6c65722063616e2063616e63656c20746865207381526020017f616c652e0000000000000000000000000000000000000000000000000000000081525060400191505060405180910390fd5b600c60008381526020019081526020016000206000808201600090556001820160006101000a81549073ffffffffffffffffffffffffffffffffffffffff021916905550506118fb82612aa0565b3373ffffffffffffffffffffffffffffffffffffffff16827fc5eddf67760a05f3e90a6723d9f6a016cd9634231e0d0dfe600128a6c388d45a60405160405180910390a35050565b6000815183511415156119e4576040517f08c379a000000000000000000000000000000000000000000000000000000000815260040180806020018281038252602c8152602001807f4e616d657320616e6420444e4120617272617973206d757374206265206f662081526020017f657175616c206c656e677468000000000000000000000000000000000000000081525060400191505060405180910390fd5b600090505b8251811015611a3f57611a32611a158483815181101515611a0657fe5b90602001906020020151612b3f565b8383815181101515611a2357fe5b90602001906020020151612d41565b80806001019150506119e9565b505050565b6000600660008373ffffffffffffffffffffffffffffffffffffffff1673ffffffffffffffffffffffffffffffffffffffff168152602001908152602001600020549050919050565b611a95611c01565b1515611aa057600080fd5b600073ffffffffffffffffffffffffffffffffffffffff166000809054906101000a900473ffffffffffffffffffffffffffffffffffffffff1673ffffffffffffffffffffffffffffffffffffffff167f8be0079c531659141344cd1fd0a4f28419497f9722a3daafe3b4186f6b6457e060405160405180910390a360008060006101000a81548173ffffffffffffffffffffffffffffffffffffffff021916908373ffffffffffffffffffffffffffffffffffffffff160217905550565b600080600660003373ffffffffffffffffffffffffffffffffffffffff1673ffffffffffffffffffffffffffffffffffffffff16815260200190815260200160002054141515611bae57600080fd5b611bb782613010565b9050606481811515611bc557fe5b0681039050611bd48282612d41565b5050565b60008060009054906101000a900473ffffffffffffffffffffffffffffffffffffffff16905090565b60008060009054906101000a900473ffffffffffffffffffffffffffffffffffffffff1673ffffffffffffffffffffffffffffffffffffffff163373ffffffffffffffffffffffffffffffffffffffff1614905090565b611c606133a9565b6000806000600c6000868152602001908152602001600020604080519081016040529081600082015481526020016001820160009054906101000a900473ffffffffffffffffffffffffffffffffffffffff1673ffffffffffffffffffffffffffffffffffffffff1673ffffffffffffffffffffffffffffffffffffffff1681525050935083602001519250339150611d426001600660008573ffffffffffffffffffffffffffffffffffffffff1673ffffffffffffffffffffffffffffffffffffffff168152602001908152602001600020546130fe90919063ffffffff16565b600660008473ffffffffffffffffffffffffffffffffffffffff1673ffffffffffffffffffffffffffffffffffffffff16815260200190815260200160002081905550611dd86001600660008673ffffffffffffffffffffffffffffffffffffffff1673ffffffffffffffffffffffffffffffffffffffff1681526020019081526020016000205461311c90919063ffffffff16565b600660008573ffffffffffffffffffffffffffffffffffffffff1673ffffffffffffffffffffffffffffffffffffffff16815260200190815260200160002081905550816005600087815260200190815260200160002060006101000a81548173ffffffffffffffffffffffffffffffffffffffff021916908373ffffffffffffffffffffffffffffffffffffffff160217905550848273ffffffffffffffffffffffffffffffffffffffff168473ffffffffffffffffffffffffffffffffffffffff167fddf252ad1be2c89b69c2b068fc378daa952ba7f163c4a11628f55a4df523b3ef60405160405180910390a48273ffffffffffffffffffffffffffffffffffffffff163460405180602001905060006040518083038185875af19250505090508273ffffffffffffffffffffffffffffffffffffffff168273ffffffffffffffffffffffffffffffffffffffff167fb33713aa0a1a4fdd31666c188c2bbcbd03fe208c88362034898252d94a5766c8348460405180838152602001821515151581526020019250505060405180910390a3801515612008576040517f08c379a00000000000000000000000000000000000000000000000000000000081526004018080602001828103825260238152602001807f4661696c656420746f2073656e6420457468657220746f207468652073656c6c81526020017f65722e000000000000000000000000000000000000000000000000000000000081525060400191505060405180910390fd5b600c60008681526020019081526020016000206000808201600090556001820160006101000a81549073ffffffffffffffffffffffffffffffffffffffff0219169055505061205685612aa0565b8173ffffffffffffffffffffffffffffffffffffffff16857f3d2bf9d9de111b6420a4298fa72715d70e737226bd8eb0d4ded09edf670a4d8086600001516040518082815260200191505060405180910390a35050505050565b600283816004828154811015156120c357fe5b906000526020600020906003020160020160009054906101000a900463ffffffff1663ffffffff16101515156120f857600080fd5b846005600082815260200190815260200160002060009054906101000a900473ffffffffffffffffffffffffffffffffffffffff1673ffffffffffffffffffffffffffffffffffffffff163373ffffffffffffffffffffffffffffffffffffffff1614151561216657600080fd5b848460048881548110151561217757fe5b906000526020600020906003020160000191906121959291906133d9565b50505050505050565b6121a6611c01565b15156121b157600080fd5b8060088190555050565b600d818154811015156121ca57fe5b906000526020600020016000915090505481565b6000806000846005600082815260200190815260200160002060009054906101000a900473ffffffffffffffffffffffffffffffffffffffff1673ffffffffffffffffffffffffffffffffffffffff163373ffffffffffffffffffffffffffffffffffffffff1614151561225157600080fd5b60048681548110151561226057fe5b9060005260206000209060030201935060048581548110151561227f57fe5b906000526020600020906003020192506122996064613135565b9150600a54821115156123cf576122d060018560020160089054906101000a900461ffff1661ffff1661323890919063ffffffff16565b8460020160086101000a81548161ffff021916908361ffff16021790555061231c60018560020160009054906101000a900463ffffffff1663ffffffff1661249090919063ffffffff16565b8460020160006101000a81548163ffffffff021916908363ffffffff160217905550612368600184600201600a9054906101000a900461ffff1661ffff1661323890919063ffffffff16565b83600201600a6101000a81548161ffff021916908361ffff1602179055506123ca8684600101546040805190810160405280600681526020017f7a6f6d62696500000000000000000000000000000000000000000000000000008152506124ba565b612469565b6123f9600185600201600a9054906101000a900461ffff1661ffff1661323890919063ffffffff16565b84600201600a6101000a81548161ffff021916908361ffff16021790555061244160018460020160089054906101000a900461ffff1661ffff1661323890919063ffffffff16565b8360020160086101000a81548161ffff021916908361ffff1602179055506124688461325e565b5b505050505050565b612479611c01565b151561248457600080fd5b61248d81613288565b50565b60008082840190508363ffffffff168163ffffffff16101515156124b057fe5b8091505092915050565b600080846005600082815260200190815260200160002060009054906101000a900473ffffffffffffffffffffffffffffffffffffffff1673ffffffffffffffffffffffffffffffffffffffff163373ffffffffffffffffffffffffffffffffffffffff1614151561252b57600080fd5b60048681548110151561253a57fe5b9060005260206000209060030201925061255383613382565b151561255e57600080fd5b6002548581151561256b57fe5b06945060028584600101540181151561258057fe5b04915060405160200180807f6b6974747900000000000000000000000000000000000000000000000000000081525060050190506040516020818303038152906040526040518082805190602001908083835b6020831015156125f857805182526020820191506020810190506020830392506125d3565b6001836020036101000a038019825116818451168082178552505050505050905001915050604051809103902060001916846040516020018082805190602001908083835b602083101515612662578051825260208201915060208101905060208303925061263d565b6001836020036101000a0380198251168184511680821785525050505050509050019150506040516020818303038152906040526040518082805190602001908083835b6020831015156126cb57805182526020820191506020810190506020830392506126a6565b6001836020036101000a038019825116818451168082178552505050505050905001915050604051809103902060001916141561271757606360648381151561271057fe5b0683030191505b6127566040805190810160405280600681526020017f4e6f4e616d65000000000000000000000000000000000000000000000000000081525083612d41565b61275f8361325e565b505050505050565b6127ed6001600660006005600086815260200190815260200160002060009054906101000a900473ffffffffffffffffffffffffffffffffffffffff1673ffffffffffffffffffffffffffffffffffffffff1673ffffffffffffffffffffffffffffffffffffffff1681526020019081526020016000205461311c90919063ffffffff16565b600660006005600085815260200190815260200160002060009054906101000a900473ffffffffffffffffffffffffffffffffffffffff1673ffffffffffffffffffffffffffffffffffffffff1673ffffffffffffffffffffffffffffffffffffffff168152602001908152602001600020819055506005600082815260200190815260200160002060006101000a81549073ffffffffffffffffffffffffffffffffffffffff021916905560006004828154811015156128aa57fe5b90600052602060002090600302016001018190555050565b6129156001600660008573ffffffffffffffffffffffffffffffffffffffff1673ffffffffffffffffffffffffffffffffffffffff168152602001908152602001600020546130fe90919063ffffffff16565b600660008473ffffffffffffffffffffffffffffffffffffffff1673ffffffffffffffffffffffffffffffffffffffff168152602001908152602001600020819055506129ab6001600660003373ffffffffffffffffffffffffffffffffffffffff1673ffffffffffffffffffffffffffffffffffffffff1681526020019081526020016000205461311c90919063ffffffff16565b600660003373ffffffffffffffffffffffffffffffffffffffff1673ffffffffffffffffffffffffffffffffffffffff16815260200190815260200160002081905550816005600083815260200190815260200160002060006101000a81548173ffffffffffffffffffffffffffffffffffffffff021916908373ffffffffffffffffffffffffffffffffffffffff160217905550808273ffffffffffffffffffffffffffffffffffffffff168473ffffffffffffffffffffffffffffffffffffffff167fddf252ad1be2c89b69c2b068fc378daa952ba7f163c4a11628f55a4df523b3ef60405160405180910390a4505050565b60008090505b600d80549050811015612b3b5781600d82815481101515612ac357fe5b90600052602060002001541415612b2e57600d6001600d8054905003815481101515612aeb57fe5b9060005260206000200154600d82815481101515612b0557fe5b9060005260206000200181905550600d805480919060019003612b289190613459565b50612b3b565b8080600101915050612aa6565b5050565b606060006060600091505b60208260ff16108015612bd5575060007f010000000000000000000000000000000000000000000000000000000000000002848360ff16602081101515612b8d57fe5b1a7f0100000000000000000000000000000000000000000000000000000000000000027effffffffffffffffffffffffffffffffffffffffffffffffffffffffffffff191614155b15612be7578180600101925050612b4a565b8160ff166040519080825280601f01601f191660200182016040528015612c1d5781602001602082028038833980820191505090505b509050600091505b60208260ff16108015612cb0575060007f010000000000000000000000000000000000000000000000000000000000000002848360ff16602081101515612c6857fe5b1a7f0100000000000000000000000000000000000000000000000000000000000000027effffffffffffffffffffffffffffffffffffffffffffffffffffffffffffff191614155b15612d3757838260ff16602081101515612cc657fe5b1a7f010000000000000000000000000000000000000000000000000000000000000002818360ff16815181101515612cfa57fe5b9060200101907effffffffffffffffffffffffffffffffffffffffffffffffffffffffffffff1916908160001a9053508180600101925050612c25565b8092505050919050565b60006001600460c060405190810160405280868152602001858152602001600163ffffffff1681526020014263ffffffff168152602001600061ffff168152602001600061ffff16815250908060018154018082558091505090600182039060005260206000209060030201600090919290919091506000820151816000019080519060200190612dd3929190613485565b506020820151816001015560408201518160020160006101000a81548163ffffffff021916908363ffffffff16021790555060608201518160020160046101000a81548163ffffffff021916908363ffffffff16021790555060808201518160020160086101000a81548161ffff021916908361ffff16021790555060a082015181600201600a6101000a81548161ffff021916908361ffff1602179055505050039050336005600083815260200190815260200160002060006101000a81548173ffffffffffffffffffffffffffffffffffffffff021916908373ffffffffffffffffffffffffffffffffffffffff160217905550612f1c6001600660003373ffffffffffffffffffffffffffffffffffffffff1673ffffffffffffffffffffffffffffffffffffffff168152602001908152602001600020546130fe90919063ffffffff16565b600660003373ffffffffffffffffffffffffffffffffffffffff1673ffffffffffffffffffffffffffffffffffffffff168152602001908152602001600020819055507f88f026aacbbecc90c18411df4b1185fd8d9be2470f1962f192bf84a27d0704b78184846040518084815260200180602001838152602001828103825284818151815260200191508051906020019080838360005b83811015612fcf578082015181840152602081019050612fb4565b50505050905090810190601f168015612ffc5780820380516001836020036101000a031916815260200191505b5094505050505060405180910390a1505050565b600080826040516020018082805190602001908083835b60208310151561304c5780518252602082019150602081019050602083039250613027565b6001836020036101000a0380198251168184511680821785525050505050509050019150506040516020818303038152906040526040518082805190602001908083835b6020831015156130b55780518252602082019150602081019050602083039250613090565b6001836020036101000a0380198251168184511680821785525050505050509050019150506040518091039020600190049050600254818115156130f557fe5b06915050919050565b600080828401905083811015151561311257fe5b8091505092915050565b600082821115151561312a57fe5b818303905092915050565b600061314d60016009546130fe90919063ffffffff16565b600981905550814233600954604051602001808481526020018373ffffffffffffffffffffffffffffffffffffffff1673ffffffffffffffffffffffffffffffffffffffff166c0100000000000000000000000002815260140182815260200193505050506040516020818303038152906040526040518082805190602001908083835b6020831015156131f657805182526020820191506020810190506020830392506131d1565b6001836020036101000a03801982511681845116808217855250505050505090500191505060405180910390206001900481151561323057fe5b069050919050565b60008082840190508361ffff168161ffff161015151561325457fe5b8091505092915050565b60035442018160020160046101000a81548163ffffffff021916908363ffffffff16021790555050565b600073ffffffffffffffffffffffffffffffffffffffff168173ffffffffffffffffffffffffffffffffffffffff16141515156132c457600080fd5b8073ffffffffffffffffffffffffffffffffffffffff166000809054906101000a900473ffffffffffffffffffffffffffffffffffffffff1673ffffffffffffffffffffffffffffffffffffffff167f8be0079c531659141344cd1fd0a4f28419497f9722a3daafe3b4186f6b6457e060405160405180910390a3806000806101000a81548173ffffffffffffffffffffffffffffffffffffffff021916908373ffffffffffffffffffffffffffffffffffffffff16021790555050565b6000428260020160049054906101000a900463ffffffff1663ffffffff1611159050919050565b604080519081016040528060008152602001600073ffffffffffffffffffffffffffffffffffffffff1681525090565b828054600181600116156101000203166002900490600052602060002090601f016020900481019282601f1061341a57803560ff1916838001178555613448565b82800160010185558215613448579182015b8281111561344757823582559160200191906001019061342c565b5b5090506134559190613505565b5090565b8154818355818111156134805781836000526020600020918201910161347f9190613505565b5b505050565b828054600181600116156101000203166002900490600052602060002090601f016020900481019282601f106134c657805160ff19168380011785556134f4565b828001600101855582156134f4579182015b828111156134f35782518255916020019190600101906134d8565b5b5090506135019190613505565b5090565b61352791905b8082111561352357600081600090555060010161350b565b5090565b905600a165627a7a723058209e37aaf68a9e73eda82dfeccce6b2298e5538c89b983da37fecd9ee5fd7b2e610029",
  "source": "pragma solidity ^0.4.25;\n\nimport \"./zombieattack.sol\";\nimport \"./erc721.sol\";\nimport \"./safemath.sol\";\n\ncontract ZombieOwnership is ZombieAttack, ERC721 {\n\n  using SafeMath for uint256;\n\n  mapping (uint => address) zombieApprovals;\n\n  struct ZombieSale {\n  uint price;    \n  address seller;\n  }\n\n  mapping(uint => ZombieSale) public zombiesForSale;\n  uint[] public zombieSaleList;\n\n  event ZombieListedForSale(uint indexed zombieId, uint price, address indexed seller);\n  event ZombieSaleCancelled(uint indexed zombieId, address indexed seller);\n  event ZombieSold(uint indexed zombieId, uint price, address indexed buyer);\n\n\n  function listZombieForSale(uint _zombieId, uint _price) external {\n      require(_price > 0, \"Price must be greater than zero.\");\n      require(msg.sender == zombieToOwner[_zombieId], \"Only the owner can list the zombie for sale.\");\n\n      zombiesForSale[_zombieId] = ZombieSale({\n          price: _price,\n          seller: msg.sender\n      });\n      zombieSaleList.push(_zombieId); \n      emit ZombieListedForSale(_zombieId, _price, msg.sender);\n  }\n\n  function getZombiesOnSale() external view returns (uint[] memory) {\n      return zombieSaleList;\n  }\n  event DebugTransfer(address indexed from, address indexed to, uint256 amount, bool success);\n\n  function buyZombie(uint _zombieId) external payable {\n    ZombieSale memory sale = zombiesForSale[_zombieId];\n      \n    address seller = sale.seller;\n    address buyer = msg.sender;\n\n    ownerZombieCount[buyer] = ownerZombieCount[buyer].add(1);\n    ownerZombieCount[seller] = ownerZombieCount[seller].sub(1);\n    zombieToOwner[_zombieId] = buyer;\n    emit Transfer(seller, buyer, _zombieId);\n\n    (bool sent, ) = seller.call.value(msg.value)(\"\");\n    emit DebugTransfer(buyer, seller, msg.value, sent);\n    require(sent, \"Failed to send Ether to the seller.\");\n\n    delete zombiesForSale[_zombieId];\n      \n    _removeZombieFromSaleList(_zombieId);\n      \n    emit ZombieSold(_zombieId, sale.price, buyer);\n}\n\n\n\n  function cancelZombieSale(uint _zombieId) external {\n      ZombieSale memory sale = zombiesForSale[_zombieId];\n      require(sale.seller == msg.sender, \"Only the seller can cancel the sale.\");\n\n      delete zombiesForSale[_zombieId];\n      _removeZombieFromSaleList(_zombieId);\n      emit ZombieSaleCancelled(_zombieId, msg.sender);\n  }\n\n  function _removeZombieFromSaleList(uint _zombieId) internal {\n      for (uint i = 0; i < zombieSaleList.length; i++) {\n          if (zombieSaleList[i] == _zombieId) {\n              zombieSaleList[i] = zombieSaleList[zombieSaleList.length - 1];\n              zombieSaleList.length--;\n              break;\n          }\n      }\n  }\n\n  function balanceOf(address _owner) external view returns (uint256) {\n    return ownerZombieCount[_owner];\n  }\n\n  function ownerOf(uint256 _tokenId) external view returns (address) {\n    return zombieToOwner[_tokenId];\n  }\n\n  function _transfer(address _from, address _to, uint256 _tokenId) private {\n    ownerZombieCount[_to] = ownerZombieCount[_to].add(1);\n    ownerZombieCount[msg.sender] = ownerZombieCount[msg.sender].sub(1);\n    zombieToOwner[_tokenId] = _to;\n    emit Transfer(_from, _to, _tokenId);\n  }\n\n  function transferFrom(address _from, address _to, uint256 _tokenId) external payable {\n      require (zombieToOwner[_tokenId] == msg.sender || zombieApprovals[_tokenId] == msg.sender);\n      _transfer(_from, _to, _tokenId);\n    }\n\n  function approve(address _approved, uint256 _tokenId) external payable onlyOwnerOf(_tokenId) {\n      zombieApprovals[_tokenId] = _approved;\n      emit Approval(msg.sender, _approved, _tokenId);\n    }\n\n}\n",
  "sourcePath": "/Users/csuftitan/Desktop/Cryptozombie demo package/contracts/zombieownership.sol",
  "compiler": {
    "name": "solc",
    "version": "0.4.25+commit.59dbf8f1.Emscripten.clang"
  },
  "schemaVersion": "3.4.4",
  "updatedAt": "2024-10-21T03:54:03.362Z",
  "networkType": "ethereum",
  "devdoc": {
    "methods": {
      "isOwner()": {
        "return": "true if `msg.sender` is the owner of the contract."
      },
      "owner()": {
        "return": "the address of the owner."
      },
      "renounceOwnership()": {
        "details": "Allows the current owner to relinquish control of the contract."
      },
      "transferOwnership(address)": {
        "details": "Allows the current owner to transfer control of the contract to a newOwner.",
        "params": {
          "newOwner": "The address to transfer ownership to."
        }
      }
    }
  },
  "userdoc": {
    "methods": {
      "renounceOwnership()": {
        "notice": "Renouncing to ownership will leave the contract without an owner. It will not be possible to call the functions with the `onlyOwner` modifier anymore."
      }
    }
  }
}